{
  "_format": "hh-sol-artifact-1",
  "contractName": "NebulaToken",
  "sourceName": "contracts/NebulaToken.sol",
  "abi": [
    {
      "inputs": [
        {
          "internalType": "string",
          "name": "name",
          "type": "string"
        },
        {
          "internalType": "string",
          "name": "symbol",
          "type": "string"
        },
        {
          "internalType": "uint256",
          "name": "initialSupply",
          "type": "uint256"
        },
        {
          "internalType": "uint256",
          "name": "mintStartYear_",
          "type": "uint256"
        },
        {
          "internalType": "uint256",
          "name": "initialInflationRate_",
          "type": "uint256"
        },
        {
          "internalType": "uint256",
          "name": "inflationRateDecay_",
          "type": "uint256"
        }
      ],
      "stateMutability": "nonpayable",
      "type": "constructor"
    },
    {
      "inputs": [],
      "name": "ECDSAInvalidSignature",
      "type": "error"
    },
    {
      "inputs": [
        {
          "internalType": "uint256",
          "name": "length",
          "type": "uint256"
        }
      ],
      "name": "ECDSAInvalidSignatureLength",
      "type": "error"
    },
    {
      "inputs": [
        {
          "internalType": "bytes32",
          "name": "s",
          "type": "bytes32"
        }
      ],
      "name": "ECDSAInvalidSignatureS",
      "type": "error"
    },
    {
      "inputs": [
        {
          "internalType": "address",
          "name": "spender",
          "type": "address"
        },
        {
          "internalType": "uint256",
          "name": "allowance",
          "type": "uint256"
        },
        {
          "internalType": "uint256",
          "name": "needed",
          "type": "uint256"
        }
      ],
      "name": "ERC20InsufficientAllowance",
      "type": "error"
    },
    {
      "inputs": [
        {
          "internalType": "address",
          "name": "sender",
          "type": "address"
        },
        {
          "internalType": "uint256",
          "name": "balance",
          "type": "uint256"
        },
        {
          "internalType": "uint256",
          "name": "needed",
          "type": "uint256"
        }
      ],
      "name": "ERC20InsufficientBalance",
      "type": "error"
    },
    {
      "inputs": [
        {
          "internalType": "address",
          "name": "approver",
          "type": "address"
        }
      ],
      "name": "ERC20InvalidApprover",
      "type": "error"
    },
    {
      "inputs": [
        {
          "internalType": "address",
          "name": "receiver",
          "type": "address"
        }
      ],
      "name": "ERC20InvalidReceiver",
      "type": "error"
    },
    {
      "inputs": [
        {
          "internalType": "address",
          "name": "sender",
          "type": "address"
        }
      ],
      "name": "ERC20InvalidSender",
      "type": "error"
    },
    {
      "inputs": [
        {
          "internalType": "address",
          "name": "spender",
          "type": "address"
        }
      ],
      "name": "ERC20InvalidSpender",
      "type": "error"
    },
    {
      "inputs": [
        {
          "internalType": "uint256",
          "name": "deadline",
          "type": "uint256"
        }
      ],
      "name": "ERC2612ExpiredSignature",
      "type": "error"
    },
    {
      "inputs": [
        {
          "internalType": "address",
          "name": "signer",
          "type": "address"
        },
        {
          "internalType": "address",
          "name": "owner",
          "type": "address"
        }
      ],
      "name": "ERC2612InvalidSigner",
      "type": "error"
    },
    {
      "inputs": [],
      "name": "InflationDecayRateTooLow",
      "type": "error"
    },
    {
      "inputs": [
        {
          "internalType": "address",
          "name": "account",
          "type": "address"
        },
        {
          "internalType": "uint256",
          "name": "currentNonce",
          "type": "uint256"
        }
      ],
      "name": "InvalidAccountNonce",
      "type": "error"
    },
    {
      "inputs": [],
      "name": "InvalidShortString",
      "type": "error"
    },
    {
      "inputs": [],
      "name": "MintAlreadyCompleted",
      "type": "error"
    },
    {
      "inputs": [],
      "name": "MintDisabled",
      "type": "error"
    },
    {
      "inputs": [],
      "name": "MintInFuture",
      "type": "error"
    },
    {
      "inputs": [],
      "name": "MintInPast",
      "type": "error"
    },
    {
      "inputs": [
        {
          "internalType": "uint256",
          "name": "year",
          "type": "uint256"
        }
      ],
      "name": "MintMissing",
      "type": "error"
    },
    {
      "inputs": [
        {
          "internalType": "address",
          "name": "owner",
          "type": "address"
        }
      ],
      "name": "OwnableInvalidOwner",
      "type": "error"
    },
    {
      "inputs": [
        {
          "internalType": "address",
          "name": "account",
          "type": "address"
        }
      ],
      "name": "OwnableUnauthorizedAccount",
      "type": "error"
    },
    {
      "inputs": [],
      "name": "StakingBridgeAlreadySet",
      "type": "error"
    },
    {
      "inputs": [
        {
          "internalType": "uint256",
          "name": "amountStaked",
          "type": "uint256"
        },
        {
          "internalType": "uint256",
          "name": "maxStake",
          "type": "uint256"
        }
      ],
      "name": "StakingRateExceeded",
      "type": "error"
    },
    {
      "inputs": [
        {
          "internalType": "string",
          "name": "str",
          "type": "string"
        }
      ],
      "name": "StringTooLong",
      "type": "error"
    },
    {
      "inputs": [],
      "name": "TransfersDisabled",
      "type": "error"
    },
    {
      "anonymous": false,
      "inputs": [
        {
          "indexed": true,
          "internalType": "address",
          "name": "owner",
          "type": "address"
        },
        {
          "indexed": true,
          "internalType": "address",
          "name": "spender",
          "type": "address"
        },
        {
          "indexed": false,
          "internalType": "uint256",
          "name": "value",
          "type": "uint256"
        }
      ],
      "name": "Approval",
      "type": "event"
    },
    {
      "anonymous": false,
      "inputs": [],
      "name": "EIP712DomainChanged",
      "type": "event"
    },
    {
      "anonymous": false,
      "inputs": [
        {
          "indexed": false,
          "internalType": "uint256",
          "name": "newRate",
          "type": "uint256"
        }
      ],
      "name": "InflationDecayRateChanged",
      "type": "event"
    },
    {
      "anonymous": false,
      "inputs": [
        {
          "indexed": true,
          "internalType": "address",
          "name": "recipient",
          "type": "address"
        },
        {
          "indexed": false,
          "internalType": "uint256",
          "name": "amount",
          "type": "uint256"
        }
      ],
      "name": "IssueNeb",
      "type": "event"
    },
    {
      "anonymous": false,
      "inputs": [
        {
          "indexed": false,
          "internalType": "uint256",
          "name": "year",
          "type": "uint256"
        },
        {
          "indexed": false,
          "internalType": "uint256",
          "name": "amount",
          "type": "uint256"
        }
      ],
      "name": "MintCompleted",
      "type": "event"
    },
    {
      "anonymous": false,
      "inputs": [
        {
          "indexed": false,
          "internalType": "bool",
          "name": "enabled",
          "type": "bool"
        }
      ],
      "name": "MintEnabled",
      "type": "event"
    },
    {
      "anonymous": false,
      "inputs": [
        {
          "indexed": true,
          "internalType": "address",
          "name": "previousOwner",
          "type": "address"
        },
        {
          "indexed": true,
          "internalType": "address",
          "name": "newOwner",
          "type": "address"
        }
      ],
      "name": "OwnershipTransferred",
      "type": "event"
    },
    {
      "anonymous": false,
      "inputs": [
        {
          "indexed": true,
          "internalType": "address",
          "name": "ethKey",
          "type": "address"
        },
        {
          "indexed": true,
          "internalType": "bytes32",
          "name": "nebulaPublicKey",
          "type": "bytes32"
        }
      ],
      "name": "RegisterNebulaKey",
      "type": "event"
    },
    {
      "anonymous": false,
      "inputs": [
        {
          "indexed": true,
          "internalType": "address",
          "name": "stakingBridge",
          "type": "address"
        }
      ],
      "name": "StakingBridgeSet",
      "type": "event"
    },
    {
      "anonymous": false,
      "inputs": [
        {
          "indexed": true,
          "internalType": "address",
          "name": "from",
          "type": "address"
        },
        {
          "indexed": true,
          "internalType": "address",
          "name": "to",
          "type": "address"
        },
        {
          "indexed": false,
          "internalType": "uint256",
          "name": "value",
          "type": "uint256"
        }
      ],
      "name": "Transfer",
      "type": "event"
    },
    {
      "anonymous": false,
      "inputs": [],
      "name": "TransfersEnabled",
      "type": "event"
    },
    {
      "anonymous": false,
      "inputs": [
        {
          "indexed": true,
          "internalType": "address",
          "name": "addr",
          "type": "address"
        },
        {
          "indexed": false,
          "internalType": "bool",
          "name": "unlocked",
          "type": "bool"
        }
      ],
      "name": "UnlockAddress",
      "type": "event"
    },
    {
      "inputs": [],
      "name": "DOMAIN_SEPARATOR",
      "outputs": [
        {
          "internalType": "bytes32",
          "name": "",
          "type": "bytes32"
        }
      ],
      "stateMutability": "view",
      "type": "function"
    },
    {
      "inputs": [
        {
          "internalType": "address",
          "name": "addr",
          "type": "address"
        }
      ],
      "name": "addUnlockedAddress",
      "outputs": [],
      "stateMutability": "nonpayable",
      "type": "function"
    },
    {
      "inputs": [
        {
          "internalType": "address",
          "name": "owner",
          "type": "address"
        },
        {
          "internalType": "address",
          "name": "spender",
          "type": "address"
        }
      ],
      "name": "allowance",
      "outputs": [
        {
          "internalType": "uint256",
          "name": "",
          "type": "uint256"
        }
      ],
      "stateMutability": "view",
      "type": "function"
    },
    {
      "inputs": [
        {
          "internalType": "address",
          "name": "spender",
          "type": "address"
        },
        {
          "internalType": "uint256",
          "name": "value",
          "type": "uint256"
        }
      ],
      "name": "approve",
      "outputs": [
        {
          "internalType": "bool",
          "name": "",
          "type": "bool"
        }
      ],
      "stateMutability": "nonpayable",
      "type": "function"
    },
    {
      "inputs": [],
      "name": "approveStakingBridge",
      "outputs": [],
      "stateMutability": "nonpayable",
      "type": "function"
    },
    {
      "inputs": [
        {
          "internalType": "address",
          "name": "account",
          "type": "address"
        }
      ],
      "name": "balanceOf",
      "outputs": [
        {
          "internalType": "uint256",
          "name": "",
          "type": "uint256"
        }
      ],
      "stateMutability": "view",
      "type": "function"
    },
    {
      "inputs": [
        {
          "internalType": "uint256",
          "name": "year",
          "type": "uint256"
        }
      ],
      "name": "completedMints",
      "outputs": [
        {
          "internalType": "uint256",
          "name": "amount",
          "type": "uint256"
        }
      ],
      "stateMutability": "view",
      "type": "function"
    },
    {
      "inputs": [],
      "name": "decimals",
      "outputs": [
        {
          "internalType": "uint8",
          "name": "",
          "type": "uint8"
        }
      ],
      "stateMutability": "view",
      "type": "function"
    },
    {
      "inputs": [],
      "name": "disableMint",
      "outputs": [],
      "stateMutability": "nonpayable",
      "type": "function"
    },
    {
      "inputs": [],
      "name": "eip712Domain",
      "outputs": [
        {
          "internalType": "bytes1",
          "name": "fields",
          "type": "bytes1"
        },
        {
          "internalType": "string",
          "name": "name",
          "type": "string"
        },
        {
          "internalType": "string",
          "name": "version",
          "type": "string"
        },
        {
          "internalType": "uint256",
          "name": "chainId",
          "type": "uint256"
        },
        {
          "internalType": "address",
          "name": "verifyingContract",
          "type": "address"
        },
        {
          "internalType": "bytes32",
          "name": "salt",
          "type": "bytes32"
        },
        {
          "internalType": "uint256[]",
          "name": "extensions",
          "type": "uint256[]"
        }
      ],
      "stateMutability": "view",
      "type": "function"
    },
    {
      "inputs": [],
      "name": "enableMint",
      "outputs": [],
      "stateMutability": "nonpayable",
      "type": "function"
    },
    {
      "inputs": [],
      "name": "enableTransfers",
      "outputs": [],
      "stateMutability": "nonpayable",
      "type": "function"
    },
    {
      "inputs": [],
      "name": "getYearsSinceInitialMint",
      "outputs": [
        {
          "internalType": "uint256",
          "name": "",
          "type": "uint256"
        }
      ],
      "stateMutability": "view",
      "type": "function"
    },
    {
      "inputs": [],
      "name": "inflationRateDecay",
      "outputs": [
        {
          "internalType": "uint256",
          "name": "",
          "type": "uint256"
        }
      ],
      "stateMutability": "view",
      "type": "function"
    },
    {
      "inputs": [],
      "name": "initialInflationRate",
      "outputs": [
        {
          "internalType": "uint256",
          "name": "",
          "type": "uint256"
        }
      ],
      "stateMutability": "view",
      "type": "function"
    },
    {
      "inputs": [],
      "name": "initialMintTimestamp",
      "outputs": [
        {
          "internalType": "uint256",
          "name": "",
          "type": "uint256"
        }
      ],
      "stateMutability": "view",
      "type": "function"
    },
    {
      "inputs": [],
      "name": "internalStakedNeb",
      "outputs": [
        {
          "internalType": "uint256",
          "name": "",
          "type": "uint256"
        }
      ],
      "stateMutability": "view",
      "type": "function"
    },
    {
      "inputs": [
        {
          "internalType": "address",
          "name": "",
          "type": "address"
        }
      ],
      "name": "isAddressUnlocked",
      "outputs": [
        {
          "internalType": "bool",
          "name": "",
          "type": "bool"
        }
      ],
      "stateMutability": "view",
      "type": "function"
    },
    {
      "inputs": [
        {
          "internalType": "address",
          "name": "recipient",
          "type": "address"
        },
        {
          "internalType": "uint256",
          "name": "amount",
          "type": "uint256"
        }
      ],
      "name": "issueTokens",
      "outputs": [],
      "stateMutability": "nonpayable",
      "type": "function"
    },
    {
      "inputs": [],
      "name": "mintEnabled",
      "outputs": [
        {
          "internalType": "bool",
          "name": "",
          "type": "bool"
        }
      ],
      "stateMutability": "view",
      "type": "function"
    },
    {
      "inputs": [
        {
          "internalType": "uint256",
          "name": "year",
          "type": "uint256"
        }
      ],
      "name": "mintNewTokens",
      "outputs": [],
      "stateMutability": "nonpayable",
      "type": "function"
    },
    {
      "inputs": [],
      "name": "mintStartYear",
      "outputs": [
        {
          "internalType": "uint256",
          "name": "",
          "type": "uint256"
        }
      ],
      "stateMutability": "view",
      "type": "function"
    },
    {
      "inputs": [],
      "name": "name",
      "outputs": [
        {
          "internalType": "string",
          "name": "",
          "type": "string"
        }
      ],
      "stateMutability": "view",
      "type": "function"
    },
    {
      "inputs": [
        {
          "internalType": "address",
          "name": "account",
          "type": "address"
        }
      ],
      "name": "nebulaKeys",
      "outputs": [
        {
          "internalType": "bytes32",
          "name": "nebulaPublicKey",
          "type": "bytes32"
        }
      ],
      "stateMutability": "view",
      "type": "function"
    },
    {
      "inputs": [
        {
          "internalType": "address",
          "name": "owner",
          "type": "address"
        }
      ],
      "name": "nonces",
      "outputs": [
        {
          "internalType": "uint256",
          "name": "",
          "type": "uint256"
        }
      ],
      "stateMutability": "view",
      "type": "function"
    },
    {
      "inputs": [],
      "name": "owner",
      "outputs": [
        {
          "internalType": "address",
          "name": "",
          "type": "address"
        }
      ],
      "stateMutability": "view",
      "type": "function"
    },
    {
      "inputs": [
        {
          "internalType": "address",
          "name": "owner",
          "type": "address"
        },
        {
          "internalType": "address",
          "name": "spender",
          "type": "address"
        },
        {
          "internalType": "uint256",
          "name": "value",
          "type": "uint256"
        },
        {
          "internalType": "uint256",
          "name": "deadline",
          "type": "uint256"
        },
        {
          "internalType": "uint8",
          "name": "v",
          "type": "uint8"
        },
        {
          "internalType": "bytes32",
          "name": "r",
          "type": "bytes32"
        },
        {
          "internalType": "bytes32",
          "name": "s",
          "type": "bytes32"
        }
      ],
      "name": "permit",
      "outputs": [],
      "stateMutability": "nonpayable",
      "type": "function"
    },
    {
      "inputs": [
        {
          "internalType": "bytes32",
          "name": "nebulaPublicKey",
          "type": "bytes32"
        }
      ],
      "name": "registerNebulaKey",
      "outputs": [],
      "stateMutability": "nonpayable",
      "type": "function"
    },
    {
      "inputs": [
        {
          "internalType": "bytes32",
          "name": "pubKey",
          "type": "bytes32"
        },
        {
          "internalType": "uint256",
          "name": "amount",
          "type": "uint256"
        }
      ],
      "name": "removeStake",
      "outputs": [],
      "stateMutability": "nonpayable",
      "type": "function"
    },
    {
      "inputs": [
        {
          "internalType": "address",
          "name": "addr",
          "type": "address"
        }
      ],
      "name": "removeUnlockedAddress",
      "outputs": [],
      "stateMutability": "nonpayable",
      "type": "function"
    },
    {
      "inputs": [],
      "name": "renounceOwnership",
      "outputs": [],
      "stateMutability": "nonpayable",
      "type": "function"
    },
    {
      "inputs": [],
      "name": "revokeStakingBridgeAllowance",
      "outputs": [],
      "stateMutability": "nonpayable",
      "type": "function"
    },
    {
      "inputs": [
        {
          "internalType": "uint256",
          "name": "inflationRateDecay_",
          "type": "uint256"
        }
      ],
      "name": "setInflationRateDecay",
      "outputs": [],
      "stateMutability": "nonpayable",
      "type": "function"
    },
    {
      "inputs": [
        {
          "internalType": "address",
          "name": "stakingBridgeAddr",
          "type": "address"
        }
      ],
      "name": "setStakingBridge",
      "outputs": [],
      "stateMutability": "nonpayable",
      "type": "function"
    },
    {
      "inputs": [
        {
          "internalType": "bytes32",
          "name": "pubKey",
          "type": "bytes32"
        },
        {
          "internalType": "uint256",
          "name": "amount",
          "type": "uint256"
        }
      ],
      "name": "stake",
      "outputs": [],
      "stateMutability": "nonpayable",
      "type": "function"
    },
    {
      "inputs": [],
      "name": "stakingBridge",
      "outputs": [
        {
          "internalType": "contract StakingBridge",
          "name": "",
          "type": "address"
        }
      ],
      "stateMutability": "view",
      "type": "function"
    },
    {
      "inputs": [],
      "name": "symbol",
      "outputs": [
        {
          "internalType": "string",
          "name": "",
          "type": "string"
        }
      ],
      "stateMutability": "view",
      "type": "function"
    },
    {
      "inputs": [],
      "name": "totalSupply",
      "outputs": [
        {
          "internalType": "uint256",
          "name": "",
          "type": "uint256"
        }
      ],
      "stateMutability": "view",
      "type": "function"
    },
    {
      "inputs": [
        {
          "internalType": "address",
          "name": "to",
          "type": "address"
        },
        {
          "internalType": "uint256",
          "name": "value",
          "type": "uint256"
        }
      ],
      "name": "transfer",
      "outputs": [
        {
          "internalType": "bool",
          "name": "",
          "type": "bool"
        }
      ],
      "stateMutability": "nonpayable",
      "type": "function"
    },
    {
      "inputs": [
        {
          "internalType": "address",
          "name": "from",
          "type": "address"
        },
        {
          "internalType": "address",
          "name": "to",
          "type": "address"
        },
        {
          "internalType": "uint256",
          "name": "value",
          "type": "uint256"
        }
      ],
      "name": "transferFrom",
      "outputs": [
        {
          "internalType": "bool",
          "name": "",
          "type": "bool"
        }
      ],
      "stateMutability": "nonpayable",
      "type": "function"
    },
    {
      "inputs": [
        {
          "internalType": "address",
          "name": "newOwner",
          "type": "address"
        }
      ],
      "name": "transferOwnership",
      "outputs": [],
      "stateMutability": "nonpayable",
      "type": "function"
    },
    {
      "inputs": [],
      "name": "transfersEnabled",
      "outputs": [
        {
          "internalType": "bool",
          "name": "",
          "type": "bool"
        }
      ],
      "stateMutability": "view",
      "type": "function"
    }
  ],
  "bytecode": "0x6101c0806040523461058357612c04803803809161001d8285610588565b8339810160c0828203126105835781516001600160401b03811161058357816100479184016105ce565b602083015190916001600160401b038211610583576100679184016105ce565b9160408101519160608201519060a060808401519301519060409586519161008f8884610588565b60018352603160f81b6020840190815281519092906001600160401b03811161048d57600354600181811c91168015610579575b602082101461046d57601f8111610514575b50806020601f82116001146104ae576000916104a3575b508160011b916000199060031b1c1916176003555b8051906001600160401b03821161048d5760045490600182811c92168015610483575b602083101461046d5781601f8493116103fd575b50602090601f83116001146103955760009261038a575b50508160011b916000199060031b1c1916176004555b61016e81610622565b6101205261017b836107b3565b6101405260208151910120918260e05251902080610100524660a05286519060208201927f8b73c3c69bb8fe3d512ecc4cf759cc79239f7b179b0ffacaa9a75d522b39400f84528883015260608201524660808201523060a082015260a081526101e660c082610588565b5190206080523060c05233156103745760088054336001600160a01b0319821681179092556001600160a01b03167f8be0079c531659141344cd1fd0a4f28419497f9722a3daafe3b4186f6b6457e0600080a34261016052301561035e5760025492848401809411610348578593600255600092308452836020528484208681540190558451868152847fddf252ad1be2c89b69c2b068fc378daa952ba7f163c4a11628f55a4df523b3ef60203093a360ff19600b5416600b5560ff19600d5416600d55610180526101a052600e55808052600f60205220555161230e90816108f6823960805181611eb2015260a05181611f6f015260c05181611e83015260e05181611f0101526101005181611f2701526101205181610c0601526101405181610c3001526101605181818161020c0152818161139501526119110152610180518181816107e4015261136401526101a051818181610f3701526113ec0152f35b634e487b7160e01b600052601160045260246000fd5b63ec442f0560e01b600052600060045260246000fd5b631e4fbdf760e01b600052600060045260246000fd5b01519050388061014f565b600460009081528281209350601f198516905b8181106103e557509084600195949392106103cc575b505050811b01600455610165565b015160001960f88460031b161c191690553880806103be565b929360206001819287860151815501950193016103a8565b60046000529091507f8a35acfbc15ff81a39ae7d344fd709f28e8600b4aa8c65c6b64bfe7fe36bd19b601f840160051c81019160208510610463575b90601f859493920160051c01905b8181106104545750610138565b60008155849350600101610447565b9091508190610439565b634e487b7160e01b600052602260045260246000fd5b91607f1691610124565b634e487b7160e01b600052604160045260246000fd5b9050830151386100ec565b600360009081528181209250601f198416905b8181106104fc575090836001949392106104e3575b5050811b01600355610101565b85015160001960f88460031b161c1916905538806104d6565b9192602060018192868a0151815501940192016104c1565b60036000527fc2575a0e9e593c00f959f8c92f12db2869c3395a3b0502d05e2516446f71f85b601f830160051c8101916020841061056f575b601f0160051c01905b81811061056357506100d5565b60008155600101610556565b909150819061054d565b90607f16906100c3565b600080fd5b601f909101601f19168101906001600160401b0382119082101761048d57604052565b60005b8381106105be5750506000910152565b81810151838201526020016105ae565b81601f820112156105835780516001600160401b03811161048d5760405192610601601f8301601f191660200185610588565b818452602082840101116105835761061f91602080850191016105ab565b90565b9081516020811060001461069d575090601f81511161065e57602081519101516020821061064e571790565b6000198260200360031b1b161790565b6044604051809263305a27a960e01b82526020600483015261068f81518092816024860152602086860191016105ab565b601f01601f19168101030190fd5b6001600160401b03811161048d57600554600181811c911680156107a9575b602082101461046d57601f8111610773575b50602092601f821160011461070e5792819293600092610703575b50508160011b916000199060031b1c19161760055560ff90565b0151905038806106e9565b601f198216936005600052806000209160005b86811061075b5750836001959610610742575b505050811b0160055560ff90565b015160001960f88460031b161c19169055388080610734565b91926020600181928685015181550194019201610721565b6005600052601f6020600020910160051c810190601f830160051c015b81811061079d57506106ce565b60008155600101610790565b90607f16906106bc565b908151602081106000146107df575090601f81511161065e57602081519101516020821061064e571790565b6001600160401b03811161048d57600654600181811c911680156108eb575b602082101461046d57601f81116108b5575b50602092601f82116001146108505792819293600092610845575b50508160011b916000199060031b1c19161760065560ff90565b01519050388061082b565b601f198216936006600052806000209160005b86811061089d5750836001959610610884575b505050811b0160065560ff90565b015160001960f88460031b161c19169055388080610876565b91926020600181928685015181550194019201610863565b6006600052601f6020600020910160051c810190601f830160051c015b8181106108df5750610810565b600081556001016108d2565b90607f16906107fe56fe608080604052600436101561001357600080fd5b600090813560e01c90816306fdde031461195b57508063095ea7b3146119345780630b2cfea9146118f957806318160ddd146118db5780632159bbf61461182c57806323b872dd146116af578063310c62261461133a578063313ce5671461131e57806332c425351461128157806334452f38146112315780633644e5151461120e57806344b28d59146111ba578063475a9fa914610fd75780634efe299314610f5a578063519408b214610f1f5780635c71f29114610f0157806368307bc214610ed75780636e1f5a1414610e8d57806370a0823114610e49578063715018a614610dc957806377e8c9c514610d955780637ecebe0014610d50578063840983b814610d0557806384b0196e14610bec5780638b564e5014610ba75780638caa523014610a575780638da5cb5b14610a235780639520d149146108ee57806395d89b41146108075780639d84934d146107cc578063a9059cbb1461079a578063ac402ba01461071a578063af35c6c7146106cd578063b19095ee14610654578063bbdcf1171461056c578063bef97c8714610549578063ca3122e01461052b578063d123973014610508578063d505accf1461036c578063dd62ed3e1461030f578063f2fde38b1461023d5763fcf2df27146101ef57600080fd5b3461023a578060031936011261023a575060206301e133806102317f000000000000000000000000000000000000000000000000000000000000000042611c04565b04604051908152f35b80fd5b503461023a57602060031936011261023a5773ffffffffffffffffffffffffffffffffffffffff61026c611a5c565b610274611c60565b1680156102e35773ffffffffffffffffffffffffffffffffffffffff600854827fffffffffffffffffffffffff0000000000000000000000000000000000000000821617600855167f8be0079c531659141344cd1fd0a4f28419497f9722a3daafe3b4186f6b6457e08380a380f35b6024827f1e4fbdf700000000000000000000000000000000000000000000000000000000815280600452fd5b503461023a57604060031936011261023a5773ffffffffffffffffffffffffffffffffffffffff6040610340611a5c565b928261034a611a84565b9416815260016020522091166000526020526020604060002054604051908152f35b503461023a5760e060031936011261023a57610386611a5c565b9061038f611a84565b604435906064359360843560ff81168103610504578542116104d85761049061048773ffffffffffffffffffffffffffffffffffffffff9283851698898952600760205260408920908154916001830190556040519060208201927f6e71edae12b1b97f4d1f60370fef10105fa2faae0126114a169c64845d6126c984528c6040840152878a1660608401528a608084015260a083015260c082015260c0815261043a60e082611b94565b519020610445611e6c565b90604051917f190100000000000000000000000000000000000000000000000000000000000083526002830152602282015260c43591604260a435922061214a565b909291926121ec565b16948086036104a857506104a5939450611f95565b80f35b84604491877f4b800e46000000000000000000000000000000000000000000000000000000008352600452602452fd5b602485877f62791302000000000000000000000000000000000000000000000000000000008252600452fd5b8480fd5b503461023a578060031936011261023a57602060ff600d54166040519015158152f35b503461023a578060031936011261023a576020600a54604051908152f35b503461023a578060031936011261023a57602060ff600b54166040519015158152f35b503461023a57602060031936011261023a57610586611a5c565b61058e611c60565b6009549073ffffffffffffffffffffffffffffffffffffffff821661062c579073ffffffffffffffffffffffffffffffffffffffff7fffffffffffffffffffffffff000000000000000000000000000000000000000092169182911617600955808252600c60205260408220600160ff198254161790557f251a140d7c9b8451a0dfe70d8d768cd5fd0558985508cd2040bcbba0409ade708280a280f35b6004837f66df0d27000000000000000000000000000000000000000000000000000000008152fd5b503461023a57602060031936011261023a5773ffffffffffffffffffffffffffffffffffffffff610683611a5c565b61068b611c60565b16808252600c6020526040822060ff1981541690557f1a26725706f798920d69cc5fb46534f4c9d63d18f24bcb239acb55f9b542b4e76020604051848152a280f35b503461023a578060031936011261023a576106e6611c60565b600160ff19600b541617600b557feadb24812ab3c9a55c774958184293ebdb6c7f6a2dbab11f397d80c86feb65d38180a180f35b503461023a57602060031936011261023a57600435610737611c60565b6001811115610772576020817ff7917503fe581add53f913c1b649994a64c2eee2b0b74e89944dd87473e6991192600e55604051908152a180f35b6004827feb5cb2ef000000000000000000000000000000000000000000000000000000008152fd5b503461023a57604060031936011261023a576107c16107b7611a5c565b6024359033611caf565b602060405160018152f35b503461023a578060031936011261023a5760206040517f00000000000000000000000000000000000000000000000000000000000000008152f35b503461023a578060031936011261023a5760405190806004549061082a82611abd565b80855291600181169081156108c7575060011461086a575b6108668461085281860382611b94565b6040519182916020835260208301906119fd565b0390f35b600481527f8a35acfbc15ff81a39ae7d344fd709f28e8600b4aa8c65c6b64bfe7fe36bd19b939250905b8082106108ad5750909150810160200161085282610842565b919260018160209254838588010152019101909291610894565b60ff191660208087019190915292151560051b850190920192506108529150839050610842565b503461023a578060031936011261023a57610907611c60565b73ffffffffffffffffffffffffffffffffffffffff6009541630156109f75780156109cb5730825260016020526040822073ffffffffffffffffffffffffffffffffffffffff82166000526020527fffffffffffffffffffffffffffffffffffffffffffffffffffffffffffffffff6040600020556040517fffffffffffffffffffffffffffffffffffffffffffffffffffffffffffffffff81527f8c5be1e5ebec7d5bd14f71427d1e84f3dd0314c0f7b2291e5b200ac8c7c3b92560203092a380f35b6024827f94280d6200000000000000000000000000000000000000000000000000000000815280600452fd5b6024827fe602df0500000000000000000000000000000000000000000000000000000000815280600452fd5b503461023a578060031936011261023a57602073ffffffffffffffffffffffffffffffffffffffff60085416604051908152f35b503461023a57610a6636611aa7565b90610a6f611c60565b600254620105b8810290808204620105b81490151715610b7a57620186a09004600a5481610a9d8583611c53565b1015610b4c575050829073ffffffffffffffffffffffffffffffffffffffff6009541690813b15610b485782916044839260405194859384927f83c592cf00000000000000000000000000000000000000000000000000000000845289600485015260248401525af18015610b3d57610b24575b50610b1e82600a54611c53565b600a5580f35b81610b2e91611b94565b610b39578138610b11565b5080fd5b6040513d84823e3d90fd5b8280fd5b7fb2cd1b57000000000000000000000000000000000000000000000000000000008552600452602452604483fd5b6024847f4e487b710000000000000000000000000000000000000000000000000000000081526011600452fd5b503461023a57602060031936011261023a57604060209173ffffffffffffffffffffffffffffffffffffffff610bdb611a5c565b168152601083522054604051908152f35b503461023a578060031936011261023a57610ca990610c2a7f0000000000000000000000000000000000000000000000000000000000000000612074565b90610c547f0000000000000000000000000000000000000000000000000000000000000000612113565b906020610cb760405193610c688386611b94565b83855260003681376040519687967f0f00000000000000000000000000000000000000000000000000000000000000885260e08589015260e08801906119fd565b9086820360408801526119fd565b904660608601523060808601528260a086015284820360c08601528080855193848152019401925b828110610cee57505050500390f35b835185528695509381019392810192600101610cdf565b503461023a57602060031936011261023a576004353382526010602052806040832055337fc05c25e402c104ae27d1502bb725fff2c516e11b5b564f820f0faa93b83a60db8380a380f35b503461023a57602060031936011261023a57604060209173ffffffffffffffffffffffffffffffffffffffff610d84611a5c565b168152600783522054604051908152f35b503461023a578060031936011261023a57602073ffffffffffffffffffffffffffffffffffffffff60095416604051908152f35b503461023a578060031936011261023a57610de2611c60565b8073ffffffffffffffffffffffffffffffffffffffff6008547fffffffffffffffffffffffff00000000000000000000000000000000000000008116600855167f8be0079c531659141344cd1fd0a4f28419497f9722a3daafe3b4186f6b6457e08280a380f35b503461023a57602060031936011261023a57604060209173ffffffffffffffffffffffffffffffffffffffff610e7d611a5c565b1681528083522054604051908152f35b503461023a57602060031936011261023a5760ff604060209273ffffffffffffffffffffffffffffffffffffffff610ec3611a5c565b168152600c84522054166040519015158152f35b503461023a57602060031936011261023a5760406020916004358152600f83522054604051908152f35b503461023a578060031936011261023a576020600e54604051908152f35b503461023a578060031936011261023a5760206040517f00000000000000000000000000000000000000000000000000000000000000008152f35b503461023a57602060031936011261023a5773ffffffffffffffffffffffffffffffffffffffff610f89611a5c565b610f91611c60565b16808252600c60205260408220600160ff198254161790557f1a26725706f798920d69cc5fb46534f4c9d63d18f24bcb239acb55f9b542b4e7602060405160018152a280f35b503461023a57604060031936011261023a57610ff1611a5c565b60243590610ffd611c60565b600183611183575b15611147575b306110b457602073ffffffffffffffffffffffffffffffffffffffff7f9b0dfc27830714cc1cfe8866b194de0aa28790b5429adf61326887087abaecd79261105585600254611c53565b6002555b16928361109f5780600254036002555b836040518281527fddf252ad1be2c89b69c2b068fc378daa952ba7f163c4a11628f55a4df523b3ef843092a3604051908152a280f35b83855284825260408520818154019055611069565b3083528260205260408320548281106111135773ffffffffffffffffffffffffffffffffffffffff7f9b0dfc27830714cc1cfe8866b194de0aa28790b5429adf61326887087abaecd79284602093308852878552036040872055611059565b83836064927fe450d38c00000000000000000000000000000000000000000000000000000000835230600452602452604452fd5b308352600c60205260ff60408420541661100b576004837f8574adcf000000000000000000000000000000000000000000000000000000008152fd5b5073ffffffffffffffffffffffffffffffffffffffff6009541673ffffffffffffffffffffffffffffffffffffffff821614611005565b503461023a578060031936011261023a576111d3611c60565b600160ff19600d541617600d557f30d46918504e7d4aa88713881c9c85ce8224770ba203947f54b221f303b6581e602060405160018152a180f35b503461023a578060031936011261023a576020611229611e6c565b604051908152f35b503461023a578060031936011261023a5761124a611c60565b60ff19600d5416600d557f30d46918504e7d4aa88713881c9c85ce8224770ba203947f54b221f303b6581e6020604051838152a180f35b503461023a578060031936011261023a5761129a611c60565b73ffffffffffffffffffffffffffffffffffffffff6009541630156109f75780156109cb5730825260016020526040822073ffffffffffffffffffffffffffffffffffffffff8216600052602052816040600020556040518281527f8c5be1e5ebec7d5bd14f71427d1e84f3dd0314c0f7b2291e5b200ac8c7c3b92560203092a380f35b503461023a578060031936011261023a57602060405160128152f35b503461023a57602060031936011261023a57600435611357611c60565b60ff600d541615611687577f000000000000000000000000000000000000000000000000000000000000000080821061165f57816301e133806113ba7f000000000000000000000000000000000000000000000000000000000000000042611c04565b041061163757818352600f602052604083205461160f5781036114d057818052600f60205261271061141160408420547f000000000000000000000000000000000000000000000000000000000000000090611c40565b045b30156114a4577fbdd559537b1d168f7b12fe44b4a3e5c7b8e0d9ce6ff50dc28c18c91fed6d99cb9160409161144a81600254611c53565b600255308552846020528285208181540190558251818152857fddf252ad1be2c89b69c2b068fc378daa952ba7f163c4a11628f55a4df523b3ef60203093a3818552600f602052808386205582519182526020820152a180f35b6024837fec442f0500000000000000000000000000000000000000000000000000000000815280600452fd5b7fffffffffffffffffffffffffffffffffffffffffffffffffffffffffffffffff81018181116115e257808352600f6020526040832054156115b7578252600f6020526040822054600e54907fffffffffffffffffffffffffffffffffffffffffffffffffffffffffffffffff82019082821161158a579061155191611c40565b811561155d5704611413565b6024847f4e487b710000000000000000000000000000000000000000000000000000000081526012600452fd5b6024857f4e487b710000000000000000000000000000000000000000000000000000000081526011600452fd5b7f432f4622000000000000000000000000000000000000000000000000000000008352600452602482fd5b6024837f4e487b710000000000000000000000000000000000000000000000000000000081526011600452fd5b6004837f170abf77000000000000000000000000000000000000000000000000000000008152fd5b6004837f26cd9acf000000000000000000000000000000000000000000000000000000008152fd5b6004837f1cc2a145000000000000000000000000000000000000000000000000000000008152fd5b6004827f17efbd6b000000000000000000000000000000000000000000000000000000008152fd5b503461023a57606060031936011261023a576116c9611a5c565b6116d1611a84565b6044359173ffffffffffffffffffffffffffffffffffffffff811680855260016020526040852073ffffffffffffffffffffffffffffffffffffffff3316600052602052604060002054907fffffffffffffffffffffffffffffffffffffffffffffffffffffffffffffffff8203611750575b50506107c19350611caf565b8482106117f85780156117cc5733156117a057856040916107c1975260016020522073ffffffffffffffffffffffffffffffffffffffff3316600052602052836040600020910390553880611744565b6024867f94280d6200000000000000000000000000000000000000000000000000000000815280600452fd5b6024867fe602df0500000000000000000000000000000000000000000000000000000000815280600452fd5b60648686847ffb8f41b200000000000000000000000000000000000000000000000000000000835233600452602452604452fd5b503461023a578061183c36611aa7565b9190611846611c60565b73ffffffffffffffffffffffffffffffffffffffff60095416803b15610b48576044839260405194859384927f34f3b31d00000000000000000000000000000000000000000000000000000000845288600485015260248401525af180156118d0576118ba575b50610b1e90600a54611c04565b916118c981610b1e9394611b94565b91906118ad565b6040513d85823e3d90fd5b503461023a578060031936011261023a576020600254604051908152f35b503461023a578060031936011261023a5760206040517f00000000000000000000000000000000000000000000000000000000000000008152f35b503461023a57604060031936011261023a576107c1611951611a5c565b6024359033611f95565b823461023a578060031936011261023a576003548161197982611abd565b80855291600181169081156108c757506001146119a0576108668461085281860382611b94565b600381527fc2575a0e9e593c00f959f8c92f12db2869c3395a3b0502d05e2516446f71f85b939250905b8082106119e35750909150810160200161085282610842565b9192600181602092548385880101520191019092916119ca565b919082519283825260005b848110611a475750507fffffffffffffffffffffffffffffffffffffffffffffffffffffffffffffffe0601f8460006020809697860101520116010190565b80602080928401015182828601015201611a08565b6004359073ffffffffffffffffffffffffffffffffffffffff82168203611a7f57565b600080fd5b6024359073ffffffffffffffffffffffffffffffffffffffff82168203611a7f57565b6003196040910112611a7f576004359060243590565b90600182811c92168015611b06575b6020831014611ad757565b7f4e487b7100000000000000000000000000000000000000000000000000000000600052602260045260246000fd5b91607f1691611acc565b60009291815491611b2083611abd565b8083529260018116908115611b765750600114611b3c57505050565b60009081526020812093945091925b838310611b5c575060209250010190565b600181602092949394548385870101520191019190611b4b565b9050602094955060ff1991509291921683830152151560051b010190565b90601f7fffffffffffffffffffffffffffffffffffffffffffffffffffffffffffffffe0910116810190811067ffffffffffffffff821117611bd557604052565b7f4e487b7100000000000000000000000000000000000000000000000000000000600052604160045260246000fd5b91908203918211611c1157565b7f4e487b7100000000000000000000000000000000000000000000000000000000600052601160045260246000fd5b81810292918115918404141715611c1157565b91908201809211611c1157565b73ffffffffffffffffffffffffffffffffffffffff600854163303611c8157565b7f118cdaa7000000000000000000000000000000000000000000000000000000006000523360045260246000fd5b73ffffffffffffffffffffffffffffffffffffffff16908115611e3d5773ffffffffffffffffffffffffffffffffffffffff16918215611e0e573082148015611e06575b8015611dfa575b8015611dd9575b15611d99575b6000828152806020526040812054828110611d665791604082827fddf252ad1be2c89b69c2b068fc378daa952ba7f163c4a11628f55a4df523b3ef958760209652828652038282205586815280845220818154019055604051908152a3565b6064937fe450d38c0000000000000000000000000000000000000000000000000000000083949352600452602452604452fd5b81600052600c60205260ff60406000205416611d07577f8574adcf0000000000000000000000000000000000000000000000000000000060005260046000fd5b5073ffffffffffffffffffffffffffffffffffffffff600954168314611d01565b5060ff600b5416611cfa565b506000611cf3565b7fec442f0500000000000000000000000000000000000000000000000000000000600052600060045260246000fd5b7f96c6fd1e00000000000000000000000000000000000000000000000000000000600052600060045260246000fd5b73ffffffffffffffffffffffffffffffffffffffff7f000000000000000000000000000000000000000000000000000000000000000016301480611f6c575b15611ed4577f000000000000000000000000000000000000000000000000000000000000000090565b60405160208101907f8b73c3c69bb8fe3d512ecc4cf759cc79239f7b179b0ffacaa9a75d522b39400f82527f000000000000000000000000000000000000000000000000000000000000000060408201527f000000000000000000000000000000000000000000000000000000000000000060608201524660808201523060a082015260a08152611f6660c082611b94565b51902090565b507f00000000000000000000000000000000000000000000000000000000000000004614611eab565b73ffffffffffffffffffffffffffffffffffffffff169081156120455773ffffffffffffffffffffffffffffffffffffffff169182156120165760207f8c5be1e5ebec7d5bd14f71427d1e84f3dd0314c0f7b2291e5b200ac8c7c3b925918360005260018252604060002085600052825280604060002055604051908152a3565b7f94280d6200000000000000000000000000000000000000000000000000000000600052600060045260246000fd5b7fe602df0500000000000000000000000000000000000000000000000000000000600052600060045260246000fd5b60ff81146120f65760ff811690601f82116120cc5760408051926120988285611b94565b602084527fffffffffffffffffffffffffffffffffffffffffffffffffffffffffffffffe060208501920136833783525290565b7fb3512b0c0000000000000000000000000000000000000000000000000000000060005260046000fd5b5060405161211081612109816005611b10565b0382611b94565b90565b60ff81146121375760ff811690601f82116120cc5760408051926120988285611b94565b5060405161211081612109816006611b10565b91907f7fffffffffffffffffffffffffffffff5d576e7357a4501ddfe92f46681b20a084116121e0579160209360809260ff60009560405194855216868401526040830152606082015282805260015afa156121d45760005173ffffffffffffffffffffffffffffffffffffffff8116156121c85790600090600090565b50600090600190600090565b6040513d6000823e3d90fd5b50505060009160039190565b91909160048110156122a9578061220257509050565b600060018203612236577ff645eedf0000000000000000000000000000000000000000000000000000000060005260046000fd5b506002810361226d57827ffce698f70000000000000000000000000000000000000000000000000000000060005260045260246000fd5b909160036000921461227d575050565b602492507fd78bce0c000000000000000000000000000000000000000000000000000000008252600452fd5b7f4e487b7100000000000000000000000000000000000000000000000000000000600052602160045260246000fdfea2646970667358221220ac6747e0c2886cf1743277f8faa1750143f6fb79f0019514a27abe89fa321f6664736f6c634300081a0033",
  "linkReferences": {},
  "deployedLinkReferences": {}
}