{
  "_format": "hh-sol-artifact-1",
  "contractName": "VegaSwap",
  "sourceName": "contracts/VegaSwap.sol",
  "abi": [
    {
      "inputs": [
        {
          "internalType": "address",
          "name": "vegaToken_",
          "type": "address"
        },
        {
          "internalType": "address",
          "name": "nebulaToken_",
          "type": "address"
        },
        {
          "internalType": "uint256",
          "name": "nebulaAllocation_",
          "type": "uint256"
        },
        {
          "internalType": "uint8",
          "name": "maxDilutionRatio_",
          "type": "uint8"
        },
        {
          "internalType": "uint256",
          "name": "vegaSwapDeadline_",
          "type": "uint256"
        },
        {
          "internalType": "uint256",
          "name": "nebulaLeftoverDeadline_",
          "type": "uint256"
        }
      ],
      "stateMutability": "nonpayable",
      "type": "constructor"
    },
    {
      "inputs": [
        {
          "internalType": "address",
          "name": "target",
          "type": "address"
        }
      ],
      "name": "AddressEmptyCode",
      "type": "error"
    },
    {
      "inputs": [
        {
          "internalType": "address",
          "name": "account",
          "type": "address"
        }
      ],
      "name": "AddressInsufficientBalance",
      "type": "error"
    },
    {
      "inputs": [],
      "name": "FailedInnerCall",
      "type": "error"
    },
    {
      "inputs": [],
      "name": "IneligibleForLeftoverRedemption",
      "type": "error"
    },
    {
      "inputs": [
        {
          "internalType": "address",
          "name": "owner",
          "type": "address"
        }
      ],
      "name": "OwnableInvalidOwner",
      "type": "error"
    },
    {
      "inputs": [
        {
          "internalType": "address",
          "name": "account",
          "type": "address"
        }
      ],
      "name": "OwnableUnauthorizedAccount",
      "type": "error"
    },
    {
      "inputs": [],
      "name": "RedeemLeftoverDeadlinePassed",
      "type": "error"
    },
    {
      "inputs": [],
      "name": "RedeemLeftoverNotEnabled",
      "type": "error"
    },
    {
      "inputs": [],
      "name": "RedeemLeftoverNotStarted",
      "type": "error"
    },
    {
      "inputs": [
        {
          "internalType": "address",
          "name": "token",
          "type": "address"
        }
      ],
      "name": "SafeERC20FailedOperation",
      "type": "error"
    },
    {
      "inputs": [],
      "name": "VegaDeadlinePassed",
      "type": "error"
    },
    {
      "anonymous": false,
      "inputs": [
        {
          "indexed": true,
          "internalType": "address",
          "name": "previousOwner",
          "type": "address"
        },
        {
          "indexed": true,
          "internalType": "address",
          "name": "newOwner",
          "type": "address"
        }
      ],
      "name": "OwnershipTransferred",
      "type": "event"
    },
    {
      "anonymous": false,
      "inputs": [
        {
          "indexed": true,
          "internalType": "address",
          "name": "recipient",
          "type": "address"
        },
        {
          "indexed": false,
          "internalType": "uint256",
          "name": "nebulaAmount",
          "type": "uint256"
        }
      ],
      "name": "RedeemLeftoverNebula",
      "type": "event"
    },
    {
      "anonymous": false,
      "inputs": [
        {
          "indexed": true,
          "internalType": "address",
          "name": "sender",
          "type": "address"
        },
        {
          "indexed": false,
          "internalType": "uint256",
          "name": "vegaAmount",
          "type": "uint256"
        }
      ],
      "name": "SwapVega",
      "type": "event"
    },
    {
      "inputs": [
        {
          "internalType": "address",
          "name": "account",
          "type": "address"
        }
      ],
      "name": "calculateLeftoverNeb",
      "outputs": [
        {
          "internalType": "uint256",
          "name": "",
          "type": "uint256"
        }
      ],
      "stateMutability": "view",
      "type": "function"
    },
    {
      "inputs": [
        {
          "internalType": "uint256",
          "name": "amount",
          "type": "uint256"
        }
      ],
      "name": "calculateRedeemableNeb",
      "outputs": [
        {
          "internalType": "uint256",
          "name": "",
          "type": "uint256"
        }
      ],
      "stateMutability": "view",
      "type": "function"
    },
    {
      "inputs": [
        {
          "internalType": "address",
          "name": "account",
          "type": "address"
        }
      ],
      "name": "canRedeemLeftover",
      "outputs": [
        {
          "internalType": "bool",
          "name": "elegible",
          "type": "bool"
        }
      ],
      "stateMutability": "view",
      "type": "function"
    },
    {
      "inputs": [],
      "name": "maxDilutionRatio",
      "outputs": [
        {
          "internalType": "uint8",
          "name": "",
          "type": "uint8"
        }
      ],
      "stateMutability": "view",
      "type": "function"
    },
    {
      "inputs": [],
      "name": "nebulaAllocation",
      "outputs": [
        {
          "internalType": "uint256",
          "name": "",
          "type": "uint256"
        }
      ],
      "stateMutability": "view",
      "type": "function"
    },
    {
      "inputs": [],
      "name": "nebulaLeftoverDeadline",
      "outputs": [
        {
          "internalType": "uint256",
          "name": "",
          "type": "uint256"
        }
      ],
      "stateMutability": "view",
      "type": "function"
    },
    {
      "inputs": [
        {
          "internalType": "address",
          "name": "account",
          "type": "address"
        }
      ],
      "name": "nebulaSwapped",
      "outputs": [
        {
          "internalType": "uint256",
          "name": "amount",
          "type": "uint256"
        }
      ],
      "stateMutability": "view",
      "type": "function"
    },
    {
      "inputs": [],
      "name": "nebulaToken",
      "outputs": [
        {
          "internalType": "contract IERC20",
          "name": "",
          "type": "address"
        }
      ],
      "stateMutability": "view",
      "type": "function"
    },
    {
      "inputs": [],
      "name": "nebulaTotalSwapped",
      "outputs": [
        {
          "internalType": "uint256",
          "name": "",
          "type": "uint256"
        }
      ],
      "stateMutability": "view",
      "type": "function"
    },
    {
      "inputs": [],
      "name": "owner",
      "outputs": [
        {
          "internalType": "address",
          "name": "",
          "type": "address"
        }
      ],
      "stateMutability": "view",
      "type": "function"
    },
    {
      "inputs": [],
      "name": "permitRedemptionOfLeftoverNeb",
      "outputs": [],
      "stateMutability": "nonpayable",
      "type": "function"
    },
    {
      "inputs": [],
      "name": "redeemLeftoverEnabled",
      "outputs": [
        {
          "internalType": "bool",
          "name": "",
          "type": "bool"
        }
      ],
      "stateMutability": "view",
      "type": "function"
    },
    {
      "inputs": [],
      "name": "redeemRemainder",
      "outputs": [],
      "stateMutability": "nonpayable",
      "type": "function"
    },
    {
      "inputs": [],
      "name": "renounceOwnership",
      "outputs": [],
      "stateMutability": "nonpayable",
      "type": "function"
    },
    {
      "inputs": [
        {
          "internalType": "uint256",
          "name": "amount",
          "type": "uint256"
        }
      ],
      "name": "swap",
      "outputs": [],
      "stateMutability": "nonpayable",
      "type": "function"
    },
    {
      "inputs": [
        {
          "internalType": "address",
          "name": "newOwner",
          "type": "address"
        }
      ],
      "name": "transferOwnership",
      "outputs": [],
      "stateMutability": "nonpayable",
      "type": "function"
    },
    {
      "inputs": [],
      "name": "vegaSwapDeadline",
      "outputs": [
        {
          "internalType": "uint256",
          "name": "",
          "type": "uint256"
        }
      ],
      "stateMutability": "view",
      "type": "function"
    },
    {
      "inputs": [
        {
          "internalType": "address",
          "name": "account",
          "type": "address"
        }
      ],
      "name": "vegaSwapped",
      "outputs": [
        {
          "internalType": "uint256",
          "name": "amount",
          "type": "uint256"
        }
      ],
      "stateMutability": "view",
      "type": "function"
    },
    {
      "inputs": [],
      "name": "vegaToken",
      "outputs": [
        {
          "internalType": "contract IERC20",
          "name": "",
          "type": "address"
        }
      ],
      "stateMutability": "view",
      "type": "function"
    },
    {
      "inputs": [],
      "name": "vegaTotalSupply",
      "outputs": [
        {
          "internalType": "uint256",
          "name": "",
          "type": "uint256"
        }
      ],
      "stateMutability": "view",
      "type": "function"
    },
    {
      "inputs": [],
      "name": "vegaTotalSwapped",
      "outputs": [
        {
          "internalType": "uint256",
          "name": "",
          "type": "uint256"
        }
      ],
      "stateMutability": "view",
      "type": "function"
    }
  ],
  "bytecode": "0x61016080604052346101c55760c081611123803803809161002082856101f4565b8339810103126101c5576100338161022d565b906100406020820161022d565b604082015160608301519160ff831683036101c55760a060808501519401519433156101de5760008054336001600160a01b03198216811783556040519560209587956004958795929491926001600160a01b0316907f8be0079c531659141344cd1fd0a4f28419497f9722a3daafe3b4186f6b6457e09080a36001600160a01b039081166080819052921660a05260c0526318160ddd60e01b82525afa9081156101d25760009161019b575b5060e052610100526101205261014052604051610ee19081610242823960805181818161060d015281816106c30152610842015260a051818181610130015281816103fe0152610745015260c051818181610294015281816103490152818161071a0152610b79015260e0518181816102ba01526109bc01526101005181610a7001526101205181818161038a015281816106470152610a330152610140518181816103b101526109030152f35b90506020813d6020116101ca575b816101b6602093836101f4565b810103126101c55751386100ed565b600080fd5b3d91506101a9565b6040513d6000823e3d90fd5b631e4fbdf760e01b600052600060045260246000fd5b601f909101601f19168101906001600160401b0382119082101761021757604052565b634e487b7160e01b600052604160045260246000fd5b51906001600160a01b03821682036101c55756fe6080604052600436101561001257600080fd5b60003560e01c80631e3e43bf14610ab75780632738f59114610a945780633db8639114610a5657806344e4706914610a1b578063568d42b1146109fd578063641dc35d146109df57806367bcdbf1146109a4578063715018a6146109265780638caa7666146108eb5780638da5cb5b146108b757806394b918de14610631578063a7ef92e7146105e0578063ad8a217a14610591578063be7f9ba514610547578063d92273d11461036c578063d943d16214610331578063da380009146102e7578063e25103fd14610276578063e3bcc87714610230578063f2fde38b146101595763fe59b51e1461010357600080fd5b3461015457600060031936011261015457602060405173ffffffffffffffffffffffffffffffffffffffff7f0000000000000000000000000000000000000000000000000000000000000000168152f35b600080fd5b346101545760206003193601126101545760043573ffffffffffffffffffffffffffffffffffffffff811680910361015457610193610c62565b80156102015773ffffffffffffffffffffffffffffffffffffffff600054827fffffffffffffffffffffffff0000000000000000000000000000000000000000821617600055167f8be0079c531659141344cd1fd0a4f28419497f9722a3daafe3b4186f6b6457e0600080a3005b7f1e4fbdf700000000000000000000000000000000000000000000000000000000600052600060045260246000fd5b3461015457600060031936011261015457610249610c62565b600680547fffffffffffffffffffffffffffffffffffffffffffffffffffffffffffffff00166001179055005b346101545760206003193601126101545760206102df6102b86004357f0000000000000000000000000000000000000000000000000000000000000000610af3565b7f000000000000000000000000000000000000000000000000000000000000000090610b35565b604051908152f35b346101545760206003193601126101545760043573ffffffffffffffffffffffffffffffffffffffff81168091036101545760005260036020526020604060002054604051908152f35b346101545760006003193601126101545760206040517f00000000000000000000000000000000000000000000000000000000000000008152f35b346101545760006003193601126101545760ff600654161561051d577f000000000000000000000000000000000000000000000000000000000000000042106104f3577f00000000000000000000000000000000000000000000000000000000000000004210156104c95733600052600560205260ff604060002054161561049f576103f733610b6e565b61042281337f0000000000000000000000000000000000000000000000000000000000000000610cb1565b336000526004602052604060002061043b828254610c55565b905533600052600560205260406000207fffffffffffffffffffffffffffffffffffffffffffffffffffffffffffffff0081541690556040519081527f6387e615f2c0d15ec003a20e60b09d3f32a6c2d6e1105e8df21884a330b7aa4d60203392a2005b7ff20189b70000000000000000000000000000000000000000000000000000000060005260046000fd5b7ff097323a0000000000000000000000000000000000000000000000000000000060005260046000fd5b7f7a3c8f2a0000000000000000000000000000000000000000000000000000000060005260046000fd5b7f43ce0d6b0000000000000000000000000000000000000000000000000000000060005260046000fd5b346101545760206003193601126101545760043573ffffffffffffffffffffffffffffffffffffffff81168091036101545760005260046020526020604060002054604051908152f35b346101545760206003193601126101545760043573ffffffffffffffffffffffffffffffffffffffff8116809103610154576000526005602052602060ff604060002054166040519015158152f35b3461015457600060031936011261015457602060405173ffffffffffffffffffffffffffffffffffffffff7f0000000000000000000000000000000000000000000000000000000000000000168152f35b34610154576020600319360112610154576004357f00000000000000000000000000000000000000000000000000000000000000004210156104f35780156107f8575b6106e76040517f23b872dd000000000000000000000000000000000000000000000000000000006020820152336024820152306044820152826064820152606481526106c1608482610be5565b7f0000000000000000000000000000000000000000000000000000000000000000610d15565b3360005260036020526040600020610700828254610c55565b905561070e81600154610c55565b60015561073e6102b8827f0000000000000000000000000000000000000000000000000000000000000000610af3565b61076981337f0000000000000000000000000000000000000000000000000000000000000000610cb1565b61077581600254610c55565b6002553360005260046020526107916040600020918254610c55565b9055336000526005602052604060002060017fffffffffffffffffffffffffffffffffffffffffffffffffffffffffffffff008254161790556040519081527f09aa379687c71430335d506f21d6f21585e726c30e0e953d4637a7f03d4725d760203392a2005b506040517f70a0823100000000000000000000000000000000000000000000000000000000815233600482015260208160248173ffffffffffffffffffffffffffffffffffffffff7f0000000000000000000000000000000000000000000000000000000000000000165afa9081156108ab57600091610879575b50610674565b90506020813d6020116108a3575b8161089460209383610be5565b81010312610154575181610873565b3d9150610887565b6040513d6000823e3d90fd5b3461015457600060031936011261015457602073ffffffffffffffffffffffffffffffffffffffff60005416604051908152f35b346101545760006003193601126101545760206040517f00000000000000000000000000000000000000000000000000000000000000008152f35b346101545760006003193601126101545761093f610c62565b600073ffffffffffffffffffffffffffffffffffffffff81547fffffffffffffffffffffffff000000000000000000000000000000000000000081168355167f8be0079c531659141344cd1fd0a4f28419497f9722a3daafe3b4186f6b6457e08280a3005b346101545760006003193601126101545760206040517f00000000000000000000000000000000000000000000000000000000000000008152f35b34610154576000600319360112610154576020600254604051908152f35b34610154576000600319360112610154576020600154604051908152f35b346101545760006003193601126101545760206040517f00000000000000000000000000000000000000000000000000000000000000008152f35b3461015457600060031936011261015457602060405160ff7f0000000000000000000000000000000000000000000000000000000000000000168152f35b3461015457600060031936011261015457602060ff600654166040519015158152f35b346101545760206003193601126101545760043573ffffffffffffffffffffffffffffffffffffffff81168103610154576102df602091610b6e565b81810292918115918404141715610b0657565b7f4e487b7100000000000000000000000000000000000000000000000000000000600052601160045260246000fd5b8115610b3f570490565b7f4e487b7100000000000000000000000000000000000000000000000000000000600052601260045260246000fd5b6001548015610bde577f0000000000000000000000000000000000000000000000000000000000000000916002548303928311610b0657610bdb9273ffffffffffffffffffffffffffffffffffffffff610bd692166000526003602052604060002054610af3565b610b35565b90565b5050600090565b90601f7fffffffffffffffffffffffffffffffffffffffffffffffffffffffffffffffe0910116810190811067ffffffffffffffff821117610c2657604052565b7f4e487b7100000000000000000000000000000000000000000000000000000000600052604160045260246000fd5b91908201809211610b0657565b73ffffffffffffffffffffffffffffffffffffffff600054163303610c8357565b7f118cdaa7000000000000000000000000000000000000000000000000000000006000523360045260246000fd5b610d139273ffffffffffffffffffffffffffffffffffffffff604051937fa9059cbb000000000000000000000000000000000000000000000000000000006020860152166024840152604483015260448252610d0e606483610be5565b610d15565b565b600073ffffffffffffffffffffffffffffffffffffffff8192169260208151910182855af13d15610e02573d67ffffffffffffffff8111610c2657610d9b9160405191610d8a60207fffffffffffffffffffffffffffffffffffffffffffffffffffffffffffffffe0601f8401160184610be5565b82523d6000602084013e5b83610e0e565b8051908115159182610dde575b5050610db15750565b7f5274afe70000000000000000000000000000000000000000000000000000000060005260045260246000fd5b81925090602091810103126101545760200151801590811503610154573880610da8565b610d9b90606090610d95565b90610e4d5750805115610e2357805190602001fd5b7f1425ea420000000000000000000000000000000000000000000000000000000060005260046000fd5b81511580610ea2575b610e5e575090565b73ffffffffffffffffffffffffffffffffffffffff907f9996b315000000000000000000000000000000000000000000000000000000006000521660045260246000fd5b50803b15610e5656fea2646970667358221220c8fe73f792d2a6d7282397bc90c768437720e23213670666c91cf78a82968fbd64736f6c634300081a0033",
  "linkReferences": {},
  "deployedLinkReferences": {}
}